{
  "contractName": "Crowd",
  "abi": [
    {
      "inputs": [],
      "stateMutability": "nonpayable",
      "type": "constructor"
    },
    {
      "inputs": [],
      "name": "manager",
      "outputs": [
        {
          "internalType": "address",
          "name": "",
          "type": "address"
        }
      ],
      "stateMutability": "view",
      "type": "function"
    },
    {
      "inputs": [],
      "name": "poor",
      "outputs": [
        {
          "internalType": "address",
          "name": "",
          "type": "address"
        }
      ],
      "stateMutability": "view",
      "type": "function"
    },
    {
      "inputs": [],
      "name": "registerPoor",
      "outputs": [],
      "stateMutability": "nonpayable",
      "type": "function"
    },
    {
      "inputs": [],
      "name": "donate",
      "outputs": [],
      "stateMutability": "payable",
      "type": "function"
    },
    {
      "inputs": [],
      "name": "distribute",
      "outputs": [],
      "stateMutability": "nonpayable",
      "type": "function"
    },
    {
      "inputs": [],
      "name": "getBalance",
      "outputs": [
        {
          "internalType": "uint256",
          "name": "",
          "type": "uint256"
        }
      ],
      "stateMutability": "view",
      "type": "function"
    }
  ],
  "bytecode": "0x6080604052600060025534801561001557600080fd5b5033600160006101000a81548173ffffffffffffffffffffffffffffffffffffffff021916908373ffffffffffffffffffffffffffffffffffffffff1602179055506102f7806100666000396000f3fe6080604052600436106100555760003560e01c806312065fe01461005a578063481c6a751461008557806374a61e5f146100c6578063ba2dbc5814610107578063e4fc6b6d1461011e578063ed88c68e14610135575b600080fd5b34801561006657600080fd5b5061006f61013f565b6040518082815260200191505060405180910390f35b34801561009157600080fd5b5061009a610149565b604051808273ffffffffffffffffffffffffffffffffffffffff16815260200191505060405180910390f35b3480156100d257600080fd5b506100db61016f565b604051808273ffffffffffffffffffffffffffffffffffffffff16815260200191505060405180910390f35b34801561011357600080fd5b5061011c610193565b005b34801561012a57600080fd5b506101336101d5565b005b61013d6102a2565b005b6000600254905090565b600160009054906101000a900473ffffffffffffffffffffffffffffffffffffffff1681565b60008054906101000a900473ffffffffffffffffffffffffffffffffffffffff1681565b336000806101000a81548173ffffffffffffffffffffffffffffffffffffffff021916908373ffffffffffffffffffffffffffffffffffffffff160217905550565b600160009054906101000a900473ffffffffffffffffffffffffffffffffffffffff1673ffffffffffffffffffffffffffffffffffffffff163373ffffffffffffffffffffffffffffffffffffffff161461022f57600080fd5b60008054906101000a900473ffffffffffffffffffffffffffffffffffffffff1673ffffffffffffffffffffffffffffffffffffffff166108fc6002549081150290604051600060405180830381858888f19350505050158015610297573d6000803e3d6000fd5b506000600281905550565b606434116102af57600080fd5b3460026000828254019250508190555056fea2646970667358221220d06ee4a3c46de50bc6e9248f8788fdacfcd2bf5695b15b801435670b56fdf63c64736f6c63430007060033",
  "immutableReferences": {},
  "source": "// SPDX-License-Identifier: MIT\npragma solidity 0.7.6;\n\ncontract Crowd{\n    address public poor;\n    address public manager;\n    uint total = 0;\n\n    constructor  () {\n        manager = msg.sender;\n    }\n\n    function registerPoor() public {\n        poor = msg.sender;\n    }\n\n    function donate() public payable{ \n        require(msg.value > 100) ;      \n        total += msg.value;\n        \n    }\n\n    function distribute() public {\n        require(msg.sender == manager);\n        payable(poor).transfer(total);\n        total = 0;\n        \n        \n    }\n\n    function getBalance() public view returns (uint){\n        return total;\n    }\n}\n",
  "sourcePath": "/Users/Plus-Dev04/BlockChain/Crowd/contracts/Crowd.sol",
  "compiler": {
    "name": "solc",
    "version": "0.7.6+commit.7338295f.Emscripten.clang"
  },
  "schemaVersion": "3.4.4",
  "updatedAt": "2022-05-25T11:04:09.738Z",
  "devdoc": {
    "kind": "dev",
    "methods": {},
    "version": 1
  },
  "userdoc": {
    "kind": "user",
    "methods": {},
    "version": 1
  }
}